:020000040000FA
:100000000C9471000C949F040C9478040C94990047
:100010000C9499000C9499000C9499000C949900FC
:100020000C9499000C9499000C9499000C949900EC
:100030000C9499000C9499000C9499000C949900DC
:100040000C942E040C9499000C94FC030C94D6038D
:100050000C9499000C9499000C9499000C949900BC
:100060000C9499000C94990005A84CCDB2D44EB9CB
:100070003836A9020C50B9918688083CA6AAAA2A4B
:10008000BE000000803F00000000240027002A007E
:1000900000000000250028002B00000000002300C5
:1000A00026002900040404040404040402020202D9
:1000B000020203030303030301020408102040802B
:1000C00001020408102001020408102000000008AA
:1000D000000201000003040700000000000000000F
:1000E000C60411241FBECFEFD8E0DEBFCDBF11E0A4
:1000F000A0E0B1E0E0E7F9E102C005900D92AA317D
:10010000B107D9F722E0AAE1B1E001C01D92A735FD
:10011000B207E1F710E0C1E7D0E004C02197FE018B
:100120000E94B00CC037D107C9F70E9403050C9498
:10013000B60C0C940000AF92BF92CF92DF92EF9278
:10014000FF920F931F93CF93DF936C017B018B0181
:10015000040F151FEB015E01AE18BF08C017D107D1
:1001600059F06991D601ED91FC910190F081E02D5B
:10017000C6010995892B79F7C501DF91CF911F91B0
:100180000F91FF90EF90DF90CF90BF90AF900895C8
:10019000FC01538D448D252F30E0842F90E0821B8D
:1001A000930B541710F0CF96089501970895FC0112
:1001B000918D828D981761F0A28DAE0FBF2FB11D6A
:1001C0005D968C91928D9F5F9F73928F90E00895C2
:1001D0008FEF9FEF0895FC01918D828D981731F07C
:1001E000828DE80FF11D858D90E008958FEF9FEFD0
:1001F0000895FC01918D228D892F90E0805C9F4FA6
:10020000821B91098F739927089584E491E00E94DD
:10021000F90021E0892B09F420E0822F089580E085
:1002200090E0892B29F00E94050181110C940000B7
:100230000895FC01A48DA80FB92FB11DA35ABF4F7B
:100240002C91848D90E001968F739927848FA689D5
:10025000B7892C93A089B1898C91837080648C9329
:10026000938D848D981306C00288F389E02D8081D8
:100270008F7D80830895EF92FF920F931F93CF930A
:10028000DF93EC0181E0888F9B8D8C8D98131AC0D1
:10029000E889F989808185FF15C09FB7F894EE89B8
:1002A000FF896083E889F989808183708064808315
:1002B0009FBF81E090E0DF91CF911F910F91FF9060
:1002C000EF900895F62E0B8D10E00F5F1F4F0F7308
:1002D0001127E02E8C8D8E110CC00FB607FCFACFC3
:1002E000E889F989808185FFF5CFCE010E94190147
:1002F000F1CFEB8DEC0FFD2FF11DE35AFF4FF08294
:100300009FB7F8940B8FEA89FB8980818062CFCFF9
:10031000CF93DF93EC01888D8823B9F0AA89BB893C
:10032000E889F9898C9185FD03C0808186FD0DC027
:100330000FB607FCF7CF8C9185FFF2CF808185FF48
:10034000EDCFCE010E941901E9CFDF91CF91089541
:10035000833081F028F4813099F08230A9F008953B
:100360008730A9F08830C9F08430B1F480918000E2
:100370008F7D03C0809180008F77809380000895E7
:1003800084B58F7784BD089584B58F7DFBCF809130
:10039000B0008F778093B00008958091B0008F7D7A
:1003A000F9CFCF93DF93282F30E0F901E453FF4FCB
:1003B0008491F901E854FF4FD491F901EC55FF4FB6
:1003C000C491CC23A1F081110E94A801EC2FF0E090
:1003D000EE0FFF1FE656FF4FA591B491EC91ED2370
:1003E00081E090E009F480E0DF91CF91089580E012
:1003F00090E0FACFCF92DF92EF92FF9282E00E94DC
:10040000D1017C01909321018093200185E00E941D
:10041000D1019C01EA94EF28C1F460911C01709114
:100420001D0180911E0190911F01232BC9F520E031
:1004300030E040E85FE30E94BB0960931C017093C9
:100440001D0180931E0190931F01C0901C01D0904C
:100450001D01E0901E01F0901F01C701B6010E942E
:10046000A40A70931B0160931A0120E030E044EB72
:1004700053E4C701B6010E94D00B20E030E046E60D
:1004800053E40E94320A60933701709338018093DD
:10049000390190933A01FF90EF90DF90CF9008954B
:1004A00020E030E040E85FE30E94BC09C6CFCF9275
:1004B000DF92EF92FF9283E00E94D1017C01909342
:1004C00029018093280186E00E94D1019C01EA94D1
:1004D000EF28C1F4609124017091250180912601DB
:1004E00090912701232BC9F520E030E040E85FE33D
:1004F0000E94BC096093240170932501809326011A
:1005000090932701C0902401D0902501E09026010E
:10051000F0902701C701B6010E94A40A709323013D
:100520006093220120E030E044EB53E4C701B601C0
:100530000E94D00B20E030E046E653E40E94320AED
:1005400060933301709334018093350190933601A9
:10055000FF90EF90DF90CF90089520E030E040E8EA
:100560005FE30E94BB09C6CF1F93CF93DF93282F71
:1005700030E0F901E453FF4F8491F901E854FF4F53
:10058000D491F901EC55FF4FC491CC23A9F0162F5B
:1005900081110E94A801EC2FF0E0EE0FFF1FE05741
:1005A000FF4FA591B4918FB7F894EC91111108C049
:1005B000D095DE23DC938FBFDF91CF911F910895FB
:1005C000DE2BF8CFCF93DF9390E0FC01E854FF4F90
:1005D00024918C559F4FFC0184918823C9F090E0B1
:1005E000880F991FFC01EA57FF4FA591B491FC01B8
:1005F000E057FF4FC591D49161110DC09FB7F8949A
:100600008C91209582238C938881282328839FBFF7
:10061000DF91CF910895623051F49FB7F8943C91E7
:10062000822F809583238C93E8812E2BEFCF8FB779
:10063000F894EC912E2B2C938FBFEACF1F93CF937E
:10064000DF93182FEB0161E00E94E202209739F45A
:1006500060E0812FDF91CF911F910C94B402CF3FC6
:10066000D10511F461E0F5CFE12FF0E0E453FF4F45
:10067000E491E33031F140F4E130B1F0E230E1F007
:10068000C038D1057CF7E4CFE73029F1E83059F1E3
:10069000E430B1F780918000806280938000D09335
:1006A0008B00C0938A0004C084B5806884BDC7BD38
:1006B000DF91CF911F91089584B5806284BDC8BD3C
:1006C000F7CF80918000806880938000D09389006C
:1006D000C0938800EDCF8091B00080688093B00017
:1006E000C093B300E5CF8091B00080628093B000EA
:1006F000C093B400DDCF2FB7F89460912F017091B3
:10070000300180913101909132012FBF08950895F9
:100710008F929F92AF92BF920F931F93CF93DF93CD
:10072000CDB7DEB7A1970FB6F894DEBF0FBECDBF31
:1007300019A2423008F44AE08E010F5D1F4F842E4B
:10074000912CB12CA12CA50194010E948E0CE62FB6
:10075000B901CA01EA3044F5E05DD801EE938D019C
:10076000232B242B252B79F790E080E0109769F05C
:10077000FD0101900020E9F73197AF014A1B5B0BA7
:10078000BD0184E491E00E949B00A1960FB6F8940D
:10079000DEBF0FBECDBFDF91CF911F910F91BF90F4
:1007A000AF909F908F900895E95CD7CF1F920F92E2
:1007B0000FB60F9211242F933F934F935F936F9334
:1007C0007F938F939F93AF93BF93EF93FF9384E4B3
:1007D00091E00E941901FF91EF91BF91AF919F911C
:1007E0008F917F916F915F914F913F912F910F90DA
:1007F0000FBE0F901F9018951F920F920FB60F9279
:1008000011242F938F939F93EF93FF93E0915401C3
:10081000F09155018081E0915A01F0915B0182FDD8
:100820001BC0908180915D018F5F8F7320915E016D
:10083000821741F0E0915D01F0E0EC5BFE4F958F97
:1008400080935D01FF91EF919F918F912F910F9078
:100850000FBE0F901F9018958081F4CF1F920F92BA
:100860000FB60F9211242F933F938F939F93AF93C3
:10087000BF9380912F0190913001A0913101B091EF
:10088000320130912E0123E0230F2D3758F50196C8
:10089000A11DB11D20932E0180932F019093300153
:1008A000A0933101B093320180912A0190912B01E4
:1008B000A0912C01B0912D010196A11DB11D809335
:1008C0002A0190932B01A0932C01B0932D01BF918D
:1008D000AF919F918F913F912F910F900FBE0F90ED
:1008E0001F90189526E8230F0296A11DB11DD2CFA7
:1008F0001F920F920FB60F9211242F933F934F9395
:100900005F936F937F938F939F93AF93BF93EF9377
:10091000FF93E0910201F09103010995FF91EF919E
:10092000BF91AF919F918F917F916F915F914F9107
:100930003F912F910F900FBE0F901F9018951F920F
:100940000F920FB60F9211242F933F934F935F9303
:100950006F937F938F939F93AF93BF93EF93FF9387
:10096000E0910001F09101010995FF91EF91BF9194
:10097000AF919F918F917F916F915F914F913F9137
:100980002F910F900FBE0F901F901895E4E4F1E0A7
:100990001382128288EE93E0A0E0B0E08483958316
:1009A000A683B78388E091E09183808385EC90E013
:1009B0009587848784EC90E09787868780EC90E029
:1009C000918B808B81EC90E0938B828B82EC90E01A
:1009D000958B848B86EC90E0978B868B118E128E94
:1009E000138E148E10923B0210923C0210923D0224
:1009F00010923E0210923F02109240021092410269
:100A0000109242020895CF93DF93CDB7DEB72897B7
:100A10000FB6F894DEBF0FBECDBF789484B5826068
:100A200084BD84B5816084BD85B5826085BD85B592
:100A3000816085BD80916E00816080936E00109210
:100A4000810080918100826080938100809181008B
:100A5000816080938100809180008160809380001C
:100A60008091B10084608093B1008091B00081607A
:100A70008093B00080917A00846080937A008091A6
:100A80007A00826080937A0080917A0081608093FE
:100A90007A0080917A00806880937A001092C10079
:100AA00062E082E00E94E20262E083E00E94E202F1
:100AB00060E084E00E94E2028AEF91E090930101FD
:100AC00080930001809169008C7F81608093690030
:100AD000E89A87E592E09093030180930201809168
:100AE0006900837F846080936900E99A10922B02E9
:100AF00010922C0210922D0210922E0210922F02B0
:100B000010923002109231021092320210923B0287
:100B100010923C0210923D0210923E0210923F024F
:100B200010924002109241021092420210920B0267
:100B300010920C0210920D0210920E0210920F02EF
:100B400010921002109211021092120210921302CF
:100B500010921402109215021092160210921702AF
:100B6000109218021092190210921A0210921B028F
:100B700010921C0210921D0210921E0210921F026F
:100B800010922002109221021092220287E090E03F
:100B90009093E8018093E70189E090E09093EA0167
:100BA0008093E90188E090E09093EC018093EB0161
:100BB0008AE090E09093EE018093ED018AE290E06C
:100BC0009093E2018093E10180E090E0A8ECB2E430
:100BD0008093E3019093E401A093E501B093E601D3
:100BE00061E087E00E94E20261E08091E9010E94F9
:100BF000E20261E08091EB010E94E20261E08091FB
:100C0000ED010E94E20280E090E0A0ECB0E480936D
:100C1000EF019093F001A093F101B093F2011092D3
:100C2000F3011092F4011092F5011092F601109266
:100C3000F7011092F8011092F9011092FA01109246
:100C4000FB011092FC011092FD011092FE01109226
:100C5000FF01109200021092010210920202E09134
:100C60005401F091550182E08083E0915001F091B0
:100C700051011082E0915201F09153018FEC808379
:100C800010925C01E0915801F091590186E0808357
:100C9000E0915601F0915701808180618083E0915D
:100CA0005601F0915701808188608083E091560160
:100CB000F0915701808180688083E0915601F09126
:100CC000570180818F7D8083C0904001D090410189
:100CD000E0904201F09043010E947B032B013C0114
:100CE00020E030E84BE355E4C701B6010E94BC099F
:100CF0004B015C01C301B2010E94DA0A9B01AC0105
:100D0000C501B4010E94280A87FF13C080913C01ED
:100D100090913D01A0913E01B0913F010196A11D2E
:100D2000B11D80933C0190933D01A0933E01B0938F
:100D30003F010E947B034B015C0120E030E44CE961
:100D400055E4C701B6010E94BC096B017C01C501D5
:100D5000B4010E94DA0A9B01AC01C701B6010E94EE
:100D6000280A87FF0CC00E947B030E94DA0A609366
:100D7000400170934101809342019093430160913F
:100D80003B0170E090E080E04AE00E94880342E08E
:100D900050E066E171E084E491E00E949B00809164
:100DA0003B01882371F00E947B030E94DA0A609362
:100DB000400170934101809342019093430110924E
:100DC0003B01C0903701D0903801E0903901F0909C
:100DD0003A0140903C0150903D0160903E0170907E
:100DE0003F010E947B030E94DA0A20911302309196
:100DF000140240911502509116020E94BB094B014A
:100E00005C018092030290920402A0920502B092CB
:100E10000602C301B2010E94DC0A69837A838B83D4
:100E20009C83A70196010E94BB096B017C01AC0168
:100E30009B01C501B4010E94D00B2091FB013091B0
:100E4000FC014091FD015091FE010E94BC092B0163
:100E50003C014092FB015092FC016092FD017092B6
:100E6000FE0120911B0230911C0240911D02509105
:100E70001E02C701B6010E94BB09A50194010E9490
:100E8000320A4B015C0180920B0290920C02A092FC
:100E90000D02B0920E022091EF013091F0014091CD
:100EA000F1015091F201C701B6010E94D00B6D8390
:100EB0007E838F8398872091F3013091F4014091D4
:100EC000F5015091F601C301B2010E94D00B9B01C4
:100ED000AC016D817E818F8198850E94BC092B01B8
:100EE0003C012091F7013091F8014091F9015091B6
:100EF000FA01C501B4010E94D00B9B01AC01C301F2
:100F0000B2010E94BC092B013C0120E030E0A901A4
:100F10000E94CB0B181624F077FA709477F870942F
:100F20001091E701C301B2010E94A40A2B0120E045
:100F300030E0A901C701B6010E94CB0B60E087FD3C
:100F400061E0812F0E94B402B2018091E9010E9408
:100F50001E030E947B030E94DA0A609313027093BF
:100F600014028093150290931602C0921B02D09235
:100F70001C02E0921D02F0921E02C0903301D0903C
:100F80003401E0903501F09036010E947B030E940D
:100F9000DA0A2091170230911802409119025091FB
:100FA0001A020E94BB094B015C01809207029092D9
:100FB0000802A0920902B0920A02A7019601698173
:100FC0007A818B819C810E94BB096B017C01AC0101
:100FD0009B01C501B4010E94D00B2091FF0130910B
:100FE000000240910102509102020E94BC092B01B3
:100FF0003C014092FF015092000260920102709207
:10100000020220911F023091200240912102509152
:101010002202C701B6010E94BB09A50194010E94EA
:10102000320A4B015C0180920F0290921002A09252
:101030001102B09212022091EF013091F001409123
:10104000F1015091F201C701B6010E94D00B6983F2
:101050007A838B839C832091F3013091F40140913A
:10106000F5015091F601C301B2010E94D00B9B0122
:10107000AC0169817A818B819C810E94BC092B0122
:101080003C012091F7013091F8014091F901509114
:10109000FA01C501B4010E94D00B9B01AC01C30150
:1010A000B2010E94BC094B015C0120E030E0A901C3
:1010B0000E94CB0B181624F0B7FAB094B7F8B0948E
:1010C0007090EB01C501B4010E94A40A4B0120E01D
:1010D00030E0A901C701B6010E94CB0B60E087FD9B
:1010E00061E0872D0E94B402B4018091ED010E945D
:1010F0001E030E947B030E94DA0A6093170270931A
:1011000018028093190290931A02C0921F02D09283
:101110002002E0922102F09222026091E10170919E
:10112000E201072E000C880B990B0E94DC0A6B0170
:101130007C016091230270912402072E000C880B21
:10114000990B0E94DC0A26E53EE049E450E40E9447
:10115000D00BA70196010E94D00B20E030E046E6BC
:1011600053E40E94320A20912B0230912C024091CC
:101170002D0250912E020E94BC092B013C0140928D
:101180002B0250922C0260922D0270922E026091DE
:10119000250270912602072E000C880B990B0E94E5
:1011A000DC0A26E53EE049E450E40E94D00BA701AA
:1011B00096010E94D00B20E030E046E653E40E9406
:1011C000320A20912F023091300240913102509129
:1011D00032020E94BC094B015C0180922F02909266
:1011E0003002A0923102B0923202AC019B01C301E5
:1011F000B2010E94BC0920E030E040E05FE30E94C1
:10120000D00B6B017C01C0923302D0923402E09289
:101210003502F0923602A3019201C501B4010E9489
:10122000BB092091E3013091E4014091E501509127
:10123000E6010E94320A4B015C0126E53EE049ECE2
:1012400050E40E94CB0B87FF85C080923B029092B6
:101250003C02A0923D02B0923E0280903B029090F0
:101260003C02A0903D02B0903E0220E030E044E31A
:1012700053E4C501B4010E94D00B26E53EE049E4E9
:1012800050E40E94320A60933F02709340028093C0
:1012900041029093420220913702309138024091EE
:1012A000390250913A02C701B6010E94BB092B01D5
:1012B0003C01C501B4010E942D0A9B01AC01C30190
:1012C000B2010E94D00B9B01AC016091430270916E
:1012D000440280914502909146020E94BC096093AD
:1012E0004302709344028093450290934602C501E5
:1012F000B4010E943D0C9B01AC01C301B2010E94EC
:10130000D00B9B01AC016091470270914802809123
:10131000490290914A020E94BC096093470270936F
:1013200048028093490290934A02C0923702D092B9
:101330003802E0923902F0923A0280E090E0892B84
:1013400009F4C2CC0E940501882309F4BDCC0E9497
:101350000000BACC26E53EE049EC50E4C501B401FA
:101360000E94BB0960933B0270933C0280933D0254
:1013700090933E0272CF5058BB27AA270E94D309F0
:101380000C947D0B0E94440B38F00E944B0B20F014
:1013900039F49F3F19F426F40C94410B0EF4E095B8
:1013A000E7FB0C943B0BE92F0E94A20B58F3BA17F2
:1013B000620773078407950720F079F4A6F50C946B
:1013C000C40B0EF4E0950B2EBA2FA02D0B01B90122
:1013D00090010C01CA01A0011124FF27591B99F0AB
:1013E000593F50F4503E68F11A16F040A22F232FB7
:1013F000342F4427585FF3CF469537952795A79507
:10140000F0405395C9F77EF41F16BA0B620B730BAD
:10141000840BBAF09150A1F0FF0FBB1F661F771F1E
:10142000881FC2F70EC0BA0F621F731F841F48F4D3
:10143000879577956795B795F7959E3F08F0B0CF5C
:101440009395880F08F09927EE0F97958795089543
:101450000E94170B08F481E008950E94540BE39555
:101460000C948E0B0E94460A0C947D0B0E944B0B31
:1014700058F00E94440B40F029F45F3F29F00C948F
:101480003B0B51110C94C50B0C94410B0E94A20B09
:1014900068F39923B1F3552391F3951B550BBB27A3
:1014A000AA2762177307840738F09F5F5F4F220FE8
:1014B000331F441FAA1FA9F335D00E2E3AF0E0E8DF
:1014C00032D091505040E695001CCAF72BD0FE2F29
:1014D00029D0660F771F881FBB1F261737074807BD
:1014E000AB07B0E809F0BB0B802DBF01FF27935875
:1014F0005F4F3AF09E3F510578F00C943B0B0C94F3
:10150000C50B5F3FE4F3983ED4F3869577956795D6
:10151000B795F7959F5FC9F7880F911D96958795A9
:1015200097F90895E1E0660F771F881FBB1F6217C8
:1015300073078407BA0720F0621B730B840BBA0B86
:10154000EE1F88F7E09508950E94AB0A6894B111E8
:101550000C94C50B08950E94AA0B88F09F5798F031
:10156000B92F9927B751B0F0E1F0660F771F881FA8
:10157000991F1AF0BA95C9F714C0B13091F00E94C2
:10158000C40BB1E008950C94C40B672F782F882703
:10159000B85F39F0B93FCCF3869577956795B395E9
:1015A000D9F73EF490958095709561957F4F8F4F58
:1015B0009F4F0895E89409C097FB3EF4909580955D
:1015C000709561957F4F8F4F9F4F9923A9F0F92F09
:1015D00096E9BB279395F695879577956795B79587
:1015E000F111F8CFFAF4BB0F11F460FF1BC06F5F6D
:1015F0007F4F8F4F9F4F16C0882311F096E911C07F
:10160000772321F09EE8872F762F05C0662371F09F
:1016100096E8862F70E060E02AF09A95660F771FB3
:10162000881FDAF7880F9695879597F90895990F8F
:101630000008550FAA0BE0E8FEEF16161706E8079C
:10164000F907C0F012161306E407F50798F0621BBD
:10165000730B840B950B39F40A2661F0232B242B92
:10166000252B21F408950A2609F4A140A6958FEFB1
:10167000811D811D089597F99F6780E870E060E003
:1016800008959FEF80EC089500240A94161617061B
:1016900018060906089500240A9412161306140663
:1016A000050608950C94410B0E94AA0BD8F3E89408
:1016B000E0E0BB279F57F0F02AED3FE049EC06C081
:1016C000EE0FBB0F661F771F881F28F0B23A620724
:1016D0007307840728F0B25A620B730B840BE395EF
:1016E0009A9572F7803830F49A95BB0F661F771F72
:1016F000881FD2F790480C94470C092E0394000CD5
:1017000011F4882352F0BB0F40F4BF2B11F460FF9B
:1017100004C06F5F7F4F8F4F9F4F0895EF93E0FF9F
:1017200007C0A2EA2AED3FE049EC5FEB0E94D30933
:101730000E947D0B0F90039401FC9058E8E6F0E0C6
:101740000C94530C57FD9058440F551F59F05F3FB0
:1017500071F04795880F97FB991F61F09F3F79F0D3
:1017600087950895121613061406551FF2CF469555
:10177000F1DF08C0161617061806991FF1CF8695D7
:101780007105610508940895E894BB2766277727BB
:10179000CB0197F908950E94170B08F48FEF089575
:1017A0000E94E30B0C947D0B0E94440B38F00E94C6
:1017B0004B0B20F0952311F00C943B0B0C94410B38
:1017C00011240C94C50B0E94A20B70F3959FC1F3DA
:1017D000950F50E0551F629FF001729FBB27F00DDF
:1017E000B11D639FAA27F00DB11DAA1F649F662734
:1017F000B00DA11D661F829F2227B00DA11D621F83
:10180000739FB00DA11D621F839FA00D611D221F3C
:10181000749F3327A00D611D231F849F600D211D20
:10182000822F762F6A2F11249F5750409AF0F1F0A3
:1018300088234AF0EE0FFF1FBB1F661F771F881F0C
:1018400091505040A9F79E3F510580F00C943B0BFE
:101850000C94C50B5F3FE4F3983ED4F386957795DF
:101860006795B795F795E7959F5FC1F7FE2B880FB2
:10187000911D9695879597F908959F930E94540B13
:101880000F9007FCEE5F0C948E0B9F3F31F0915050
:1018900020F4879577956795B795880F911D969554
:1018A000879597F908959F938F937F936F93FF93F5
:1018B000EF939B01AC010E94D00BEF91FF910E942E
:1018C000670C2F913F914F915F910C94D00BDF9358
:1018D000CF931F930F93FF92EF92DF927B018C01C6
:1018E000689406C0DA2EEF010E94E30BFE01E89433
:1018F000A5912591359145915591A6F3EF010E944F
:10190000D309FE019701A801DA9469F7DF90EF90FF
:10191000FF900F911F91CF91DF910895A1E21A2EB0
:10192000AA1BBB1BFD010DC0AA1FBB1FEE1FFF1F83
:10193000A217B307E407F50720F0A21BB30BE40BD3
:10194000F50B661F771F881F991F1A9469F760951A
:101950007095809590959B01AC01BD01CF010895D4
:10196000EE0FFF1F0590F491E02D0994F894FFCF3E
:1019700087038703000000003B019B00C80088012B
:0A198000F900D700EB000D0A00008B
:107E0000112484B714BE81FFF0D085E080938100F7
:107E100082E08093C00088E18093C10086E0809377
:107E2000C20080E18093C4008EE0C9D0259A86E02C
:107E300020E33CEF91E0309385002093840096BBD3
:107E4000B09BFECF1D9AA8958150A9F7CC24DD24C4
:107E500088248394B5E0AB2EA1E19A2EF3E0BF2EE7
:107E6000A2D0813461F49FD0082FAFD0023811F036
:107E7000013811F484E001C083E08DD089C08234E0
:107E800011F484E103C0853419F485E0A6D080C0E4
:107E9000853579F488D0E82EFF2485D0082F10E0AE
:107EA000102F00270E291F29000F111F8ED06801E7
:107EB0006FC0863521F484E090D080E0DECF843638
:107EC00009F040C070D06FD0082F6DD080E0C81688
:107ED00080E7D80618F4F601B7BEE895C0E0D1E017
:107EE00062D089930C17E1F7F0E0CF16F0E7DF06D8
:107EF00018F0F601B7BEE89568D007B600FCFDCFD4
:107F0000A601A0E0B1E02C9130E011968C91119780
:107F100090E0982F8827822B932B1296FA010C0160
:107F200087BEE89511244E5F5F4FF1E0A038BF0790
:107F300051F7F601A7BEE89507B600FCFDCF97BE46
:107F4000E89526C08437B1F42ED02DD0F82E2BD052
:107F50003CD0F601EF2C8F010F5F1F4F84911BD097
:107F6000EA94F801C1F70894C11CD11CFA94CF0C13
:107F7000D11C0EC0853739F428D08EE10CD085E9AC
:107F80000AD08FE07ACF813511F488E018D01DD067
:107F900080E101D065CF982F8091C00085FFFCCF94
:107FA0009093C60008958091C00087FFFCCF809118
:107FB000C00084FD01C0A8958091C6000895E0E648
:107FC000F0E098E1908380830895EDDF803219F02E
:107FD00088E0F5DFFFCF84E1DECF1F93182FE3DFCA
:107FE0001150E9F7F2DF1F91089580E0E8DFEE27F6
:047FF000FF270994CA
:027FFE00040479
:00000001FF
